:020000040800F2
:100000004804002045010008B50600082304000844
:10001000B1060008B9010008390B00080000000013
:10002000000000000000000000000000CD070008F4
:100030000D02000800000000B7060008B90800081B
:100040005F0100085F0100085F0100085F01000810
:100050005F0100085F0100085F0100085F01000800
:100060005F0100085F0100085F0100085F010008F0
:100070005F0100085F0100085F0100085F010008E0
:100080005F0100085F0100085F0100085F010008D0
:100090005F0100085F0100085F0100085F010008C0
:1000A0005F0100085F0100085F0100085F010008B0
:1000B0005F0100085F0100085F0100085F010008A0
:1000C0005F0100085F0100085F0100085F01000890
:1000D0005F0100085F0100085F0100085F01000880
:1000E0005F0100085F0100085F0100085F01000870
:1000F0005F0100085F0100085F0100085F01000860
:100100005F0100085F0100085F0100085F0100084F
:100110005F0100085F0100085F0100085F0100083F
:100120005F0100085F0100085F0100085F0100082F
:10013000DFF80CD000F02EF800480047F50C00085E
:10014000480400200648804706480047FEE7FEE7CF
:10015000FEE7FEE7FEE7FEE7FEE7FEE7FEE7FEE777
:100160002D0900083101000830B50B46014600207A
:100170002022012409E021FA02F59D4205D303FA69
:1001800002F5491B04FA02F52844151EA2F10102EA
:10019000F1DC30BD064C074D06E0E06840F001039D
:1001A00094E8070098471034AC42F6D3FFF7C4FF39
:1001B000A00D0008C00D000800BFFEE708B5012132
:1001C000102000F089FA4FF48050ADF800001420A0
:1001D0008DF8030003208DF8020069460A4800F0FC
:1001E00093F84FF48051084800F019F94FF400607B
:1001F000ADF800006946044800F086F84FF400614D
:10020000014800F00CF908BD0010014070470000E3
:1002100001B50849009808604FF0E020006940F0FF
:1002200001004FF0E021086100BF0248006800288B
:10023000FBD108BD300000202DE9F04107460D46F6
:10024000164642F2107401212C4800F051F900BF0B
:1002500006E0641E24B9042000F0E4F9BDE8F08152
:100260002749264800F0DFF80028F2D00022A0211C
:10027000224800F0CBF942F2107405E0641E1CB96C
:10028000052000F0CFF9E9E71E491C4800F0CBF843
:100290000028F3D03946194800F0C1F942F2107431
:1002A00005E0641E1CB9062000F0BCF9D6E715492C
:1002B000891E124800F0B7F80028F2D016E029781D
:1002C0000E4800F0ACF942F2107405E0641E1CB94F
:1002D000072000F0A7F9C1E70A49891C074800F088
:1002E000A2F80028F2D06D1C701EC6B2002EE6D116
:1002F0000121024800F008F90020AFE70054004057
:1003000001000300820007002DE9F04102460025AC
:100310000026002000230024002791F803C00CF0E1
:100320000F0591F803C00CF0100CBCF1000F03D0C6
:1003300091F802C04CEA050591F800C0BCF1000F2D
:1003400031D0146800202BE04FF0010C0CFA00F3C0
:10035000B1F800C00CEA03069E4220D183004FF0A2
:100360000F0C0CFA03F7BC4305FA03FC4CEA040437
:1003700091F803C0BCF1280F06D14FF0010C0CFA24
:1003800000FCC2F814C00AE091F803C0BCF1480FA9
:1003900005D14FF0010C0CFA00FCC2F810C0401C53
:1003A0000828D1D31460B1F800C0BCF1FF0F34DDD0
:1003B000546800202EE000F1080C4FF0010808FA04
:1003C0000CF3B1F800C00CEA03069E4221D1830071
:1003D0004FF00F0C0CFA03F7BC4305FA03FC4CEA90
:1003E000040491F803C0BCF1280F05D100F1080CFA
:1003F00008FA0CF8C2F8148091F803C0BCF1480F59
:1004000007D100F1080C4FF0010808FA0CF8C2F807
:100410001080401C0828CED35460BDE8F0810161F3
:10042000704700BFFEE770B5024600240025002398
:100430000020958A138B1B0445EA030626F07F44AF
:1004400004EA01068E4201D1012000E0002070BDC7
:1004500021B1028842F00102028004E002884FF6D6
:10046000FE731A400280704700B585B0FFF7A6FE04
:100470000121082000F030F90121480500F01CF9A5
:100480004020ADF810001C208DF8130003208DF8DB
:10049000120004A91348FFF737FF8020ADF81000C1
:1004A00004A91048FFF730FF4FF48060ADF80A0050
:1004B0000001ADF80C000C4800904BF6FF70ADF851
:1004C00006000020ADF804006A20ADF80800694677
:1004D000064800F025F801210448FFF7B9FF05B0F0
:1004E00000BD0000000C0140801A060000540040CE
:1004F00021B1028842F48072028004E002884FF643
:10050000FF631A400280704721B1028842F40072F2
:10051000028004E002884FF6FF531A4002807047C1
:100520002DE9F04385B004460D460026B146042768
:10053000DFF8CC80A6884FF6C0700640684600F011
:10054000DBF8DDF808802F48B8FBF0F01FFA80F9DF
:1005500046EA0906A68020884FF6FE7108402080F2
:1005600000262949286888420CD828684000B8FB32
:10057000F0F087B2042F00DA04273E4309F10100AE
:10058000208427E0E8884BF6FF71884206D128686E
:1005900000EB4000B8FBF0F087B209E0286800EB00
:1005A000C00101EB0010B8FBF0F087B247F48047C0
:1005B000C7F30B0008B947F0010747F400400643B2
:1005C0004FF4967009FB00F04FF47A7190FBF1F054
:1005D000401C2084A683208840F0010020802688CB
:1005E0004FF6F5300640A8886989084306432680FF
:1005F000A88929890843208105B0BDE8F08300005F
:1006000000127A0040420F00A086010012B141F0B2
:10061000010102E04FF6FE7319400182704701822A
:100620007047000010B50446214602A000F086FA8B
:10063000002010BD0D0AB3ACCAB1B3F6B4EDA3AC43
:10064000B4EDCEF3B4FABAC5CEAAA3BA25640D0AA6
:100650000000000008B50121242000F03DF84FF40F
:100660008070ADF8000010208DF8030003208DF895
:10067000020069460C48FFF747FE4FF480710A48B4
:10068000FFF7CDFE0420ADF8000010208DF8030028
:1006900003208DF8020069460448FFF735FE042167
:1006A0000248FFF7BCFE08BD0008014000140140ED
:1006B00000BFFEE77047704729B1064AD26902437E
:1006C000044BDA6104E0034AD2698243014BDA61E8
:1006D000704700000010024029B1064A92690243A7
:1006E000044B9A6104E0034A92698243014B9A6188
:1006F000704700000010024030B5002100220024A5
:1007000000232D4D6D6805F00C0121B1042905D0A1
:10071000082923D105E0294D056022E0274D056019
:100720001FE0254D6D6805F47012234D6D6805F4CA
:100730008034022505EB92421CB9214D55430560DA
:100740000BE01D4D6D6805F400351DB11C4D554382
:10075000056002E0194D5543056002E0174D056044
:1007600000BF00BF144D6D6805F0F0010909154D7B
:100770006B5C0568DD4045600F4D6D6805F4E06118
:10078000090A104D6B5C4568DD4085600A4D6D6857
:1007900005F46051C90A0B4D6B5C4568DD40C560CE
:1007A000054D6D6805F44041890B074D6B5CC568CC
:1007B000B5FBF3F5056130BD0010024000127A0070
:1007C00000093D001400002024000020704710B5EF
:1007D00000F002F810BD00000CB500200190009060
:1007E0003348006840F480303149086000BF304829
:1007F000006800F4003000900198401C01900098BF
:1008000018B90198B0F5A06FF1D12948006800F43B
:10081000003010B10120009001E00020009000980D
:10082000012843D12348006840F0100021490860A6
:100830000846006820F0030008600846006840F0A1
:10084000020008601A484068194948600846406834
:1008500048600846406840F4806048600846406848
:1008600020F47C1048600846406840F4E810486076
:100870000846006840F08070086000BF0C480068BF
:1008800000F000700028F9D00948406820F003000B
:10089000074948600846406840F00200486000BFD1
:1008A0000348406800F00C000828F9D10CBD000096
:1008B000001002400020024010B500F067F810BDA3
:1008C00030B516480068164AB0FBF2F1B1F1807FEE
:1008D00001D301201DE021F07F40401E4FF0E022B7
:1008E000506150170F22002807DA13071D0E0D4B19
:1008F00000F00F04241F1D5503E013071C0E0A4BC4
:100900001C5400BF00204FF0E022906107201061CE
:10091000002008B100BFFEE730BD0000000000204D
:1009200040420F0018ED00E000E400E010B513486D
:10093000006840F00100114908600846406810490D
:1009400008400E494860084600680E4908400B49B7
:1009500008600846006820F4802008600846406867
:1009600020F4FE0048604FF41F008860FFF72FFF5F
:100970004FF000600449086010BD00000010024004
:100980000000FFF8FFFFF6FE08ED00E004480068F5
:1009900020B103480068401E01490860704700000C
:1009A0003000002021B1828942F40052828104E0AB
:1009B00082894DF6FF731A408281704700B585B079
:1009C00001210420FFF788FE01218803FFF784FE40
:1009D0004FF40070ADF8100018208DF813000320BC
:1009E0008DF8120004A91348FFF78EFC4FF48060C5
:1009F000ADF8100004208DF8130004A90D48FFF78E
:100A000083FC4FF4E13000900020ADF80400ADF815
:100A10000600ADF80800ADF80C000C20ADF80A0097
:100A20006946054800F018F801210348FFF7BAFFAE
:100A300005B000BD0008014000380140024600201A
:100A4000B1F5007F00D100BF13880B400BB101202E
:100A500000E00020704700002DE9F04786B0054611
:100A60000E460024A24600BFA1460027B08900B16F
:100A700000BF2F462C8A4CF6FF700440F0880443D8
:100A80002C82AC894EF6F3100440B08831890843BB
:100A9000718908430443AC81AC8A4FF6FF4004409F
:100AA000B0890443AC8201A8FFF726FE1F488742A5
:100AB00002D1DDF810A001E0DDF80CA0A88900F457
:100AC000004040B10AEBCA0000EB0A10316849004F
:100AD000B0FBF1F807E00AEBCA0000EB0A1031683E
:100AE0008900B0FBF1F86420B8FBF0F004012009A4
:100AF000642101FB1089A88900F4004040B1322034
:100B000000EBC900B0FBF1F000F00700044308E07F
:100B1000322000EB09106421B0FBF1F000F00F006F
:100B200004432C8106B0BDE8F08700000038014086
:100B3000C1F308028280704700BFFEE70FB4054B87
:100B400010B503A9044A029800F018F810BC5DF82B
:100B500014FB0000D10C00083400002002E008C89B
:100B6000121F08C1002AFAD170477047002001E027
:100B700001C1121F002AFBD1704700002DE9FF4F71
:100B800089B09B460446002506E025280BD05A462E
:100B90000B999047641C6D1C20780028F5D10DB08E
:100BA0002846BDE8F08F0027B8460122474900E0FB
:100BB000074314F8013F203B02FA03F00842F7D143
:100BC00020782E2819D114F8010F47F004072A289D
:100BD0000ED06FF02F022078A0F1300109290CD837
:100BE00008EB880102EB410100EB0108641CF2E70D
:100BF0000A98641C50F8048B0A9020780028CED004
:100C0000642808D0692806D075281ED05A460B994A
:100C100090476D1C58E00A994FF00A0901C90A91E2
:100C2000002802DA40422D2102E0390504D52B21AB
:100C30008DF82010012103E0F90704D02021F7E707
:100C40008A4608AE0DE00021FAE70A994FF00A093A
:100C500001C90A91F7E74946FFF786FA303106F8ED
:100C6000011D0028F7D1ADEB060000F1200978073F
:100C700001D44FF00108C84502DDA8EB090000E0EF
:100C800000208046002706E008A85A46C05D0B9960
:100C900090476D1C7F1C5745F6DB04E030205A4618
:100CA0000B9990476D1CB8F10001A8F10108F5DC23
:100CB00005E016F8010B5A460B9990476D1CB9F1E7
:100CC0000001A9F10109F4DC641C65E709280100B1
:100CD00070B504460D46E1B20548FFF729FF00BF95
:100CE00080210348FFF7AAFE0028F9D0204670BDF6
:100CF000003801400024FFF7ADFCFFF75FFEFFF76F
:100D0000DFFDFFF7B1FB14A0FFF718FF0822184919
:100D10000020FFF791FA17A0FFF710FF00BF06E0D1
:100D20001948015D19A0FFF709FF601CC4B20A2C25
:100D3000F6DB17A0FFF702FF0CE001201549086061
:100D40001548FFF765FA00201449C1F8A0011248C0
:100D5000FFF75EFAF1E700000D0AD5E2CAC7D2BB81
:100D6000B8F6494943CDA8D1B6CAB5D1E90D0A00B4
:100D7000280000200D0ABDD3CAD5B5BDB5C4CAFD33
:100D8000BEDDCEAA3A000000380000202564200015
:100D90000D0A0000A001214220A10700000021420D
:100DA000C00D000800000020380000005C0B0008A7
:100DB000F80D000838000020100400006C0B00083B
:100DC00000A24A0400000000000000000102030429
:100DD00006070809000000000102030401020304E1
:100DE00006070809020406080405060708090A128E
:080DF0000000000000000000FB
:0400000508000131BD
:00000001FF
